:100000000C943E000C9448000C9448000C9448005A
:100010000C9448000C9448000C9448000C94480040
:100020000C9448000C9448000C9448000C94480030
:100030000C9448000C9448000C9448000C94480020
:100040000C9448000C9448000C9448000C94480010
:100050000C9448000C9448000C9448000C94480000
:100060000C9448000C9448000C9448000C944800F0
:100070000C9448000C9448000C94480011241FBEB6
:10008000CFEFCDBFDFE3DEBF0E9456000C948200AD
:100090000C940000FC018191811101C008959091A0
:1000A000040895FFFCCF80930208F5CF88ED90E01F
:1000B00084BF909361008FE493EC0197F1F700C047
:1000C000000081E08093010282E080930504809328
:1000D00001048BE591E0809308089093090880E47F
:1000E0008093060888E091E80E944A009FE724E890
:1000F0008EE1915020408040E1F700C0000085E291
:0801000091E8F2CFF894FFCF63
:100108000D0A0A426565746C65646F75626C6520DA
:10011800646961676E6F737469630D0A005374696B
:0D0128006C6C20776F726B696E670D0A00BA
:00000001FF
